:100000000C945D000C9485000C9485000C94850084
:100010000C9485000C9485000C9485000C9485004C
:100020000C9485000C9485000C9485000C9485003C
:100030000C9485000C9485000C9485000C9485002C
:100040000C9400030C9485000C9485000C9485009E
:100050000C9485000C9485000C9485000C9485000C
:100060000C9485000C94850000000008000201003B
:100070000003040700000000000000000000000072
:10008000250028002B0000000000240027002A0083
:10009000040404040404040402020202020203032E
:1000A0000303030301020408102040800102040836
:1000B0001020010204081020B10411241FBECFEF4C
:1000C000D8E0DEBFCDBF11E0A0E0B1E0E8E8FDE0A0
:1000D00002C005900D92AC34B107D9F721E0ACE431
:1000E000B1E001C01D92AD36B207E1F710E0CDE5F9
:1000F000D0E004C02197FE010E94BC06CC35D10798
:10010000C9F70E944A030C94C2060C94000090E0C8
:10011000FC01EC55FF4F249180579F4FFC018491C7
:10012000882399F090E0880F991FFC01EA57FF4F50
:10013000A591B491FC01E458FF4F859194918FB73C
:10014000F894EC91E22BEC938FBF0895AF92BF929D
:10015000CF92DF92EF92FF920F931F93CF93DF9393
:100160006C017B018B01040F151FEB015E01AE18C2
:10017000BF08C017D10759F06991D601ED91FC91E4
:100180000190F081E02DC6010995892B79F7C50111
:10019000DF91CF911F910F91FF90EF90DF90CF9063
:1001A000BF90AF90089590E0FC01E859FF4F249173
:1001B000FC01EC55FF4F3491FC01E057FF4FE491F7
:1001C000EE23C9F0222339F0233001F1A8F42130C5
:1001D00019F1223029F1F0E0EE0FFF1FE458FF4F34
:1001E000A591B4918FB7F894EC91611126C0309528
:1001F0003E233C938FBF08952730A9F02830C9F0E3
:10020000243049F7809180008F7D03C08091800069
:100210008F7780938000DFCF84B58F7784BDDBCF6D
:1002200084B58F7DFBCF8091B0008F778093B00035
:10023000D2CF8091B0008F7DF9CF3E2BDACF8E30B8
:1002400008F08E508770806480937C0080917A00E3
:10025000806480937A0080917A0086FDFCCF809143
:1002600078009091790008953FB7F89480915101FA
:1002700090915201A0915301B091540126B5A89BD1
:1002800005C02F3F19F00196A11DB11D3FBFBA2F28
:10029000A92F982F8827BC01CD01620F711D811DE8
:1002A000911D42E0660F771F881F991F4A95D1F76D
:1002B0000895089590E080E00895FC0101900020E9
:1002C000E9F73197AF01481B590BBC0185E591E077
:1002D0000C94A6008F929F92AF92BF920F931F93A0
:1002E000CF93DF93CDB7DEB7A1970FB6F894DEBFFB
:1002F0000FBECDBF19A2423008F44AE08E010F5D57
:100300001F4F842E912CB12CA12CA50194010E9489
:100310009A06E62FB901CA01EA30F4F4E05DD8018B
:10032000EE938D01232B242B252B79F790E080E091
:10033000109719F0CD010E945D01A1960FB6F894B7
:10034000DEBF0FBECDBFDF91CF911F910F91BF9048
:10035000AF909F908F900895E95CE1CFCF93DF93AA
:10036000EC0160E08E810E94D30061E08E810E94EA
:10037000D30060E08E810E94D3008BE891E001976A
:10038000F1F7DF91CF910895CF92DF92EF92FF9234
:100390000F931F93CF93DF936C017C0187E0E80EEE
:1003A000F11CD0E0C0E0062F10E0B8010C2E02C016
:1003B000759567950A94E2F76170F70181917F0165
:1003C0000E94D3002196C430D10579F7C601DF9190
:1003D000CF911F910F91FF90EF90DF90CF900C94F1
:1003E000AE01CF92DF92EF92FF920F931F93CF93C4
:1003F000DF93EC01F62E642F8C810E94D3008D8157
:100400008F3F19F060E00E94D3000F2D10E08F8520
:1004100084FF25C06E0187E0C80ED11CF12CE12CB1
:10042000B8010E2C02C0759567950A94E2F76170C9
:10043000F60181916F010E94D300FFEFEF1AFF0ACE
:1004400088E0E816F10461F7CE01DF91CF911F91AA
:100450000F91FF90EF90DF90CF900C94AE01B80118
:1004600084E0759567958A95E1F7CE010E94C401F5
:100470006F2DCE01DF91CF911F910F91FF90EF90E3
:10048000DF90CF900C94C40140E0682F85E591E0A7
:100490000C94F101CF93DF93613029F090916401C6
:1004A000986090936401609368011092690190E4F0
:1004B00090936A0180936B01805C80936C018091C2
:1004C00059010E94870080915A018F3F11F00E94CC
:1004D000870080915B010E948700C5E5D1E09E0105
:1004E000255531408091640184FD0AC084E090E08C
:1004F0002196281739073CF48E810E948700EFCFA0
:1005000088E090E0F5CF8BE39DE00197F1F760E0A4
:10051000809159010E94D30060E080915B010E94AC
:10052000D30080915A018F3F19F060E00E94D30000
:100530008091640184FD39C063E085E591E00E940B
:10054000C401CBE4D6E4CE010197F1F763E085E581
:1005500091E00E94C4012197F1F763E085E591E005
:100560000E94C40183E592E00197F1F762E085E51E
:1005700091E00E94C4018091640180620E94440263
:1005800084E0809365018CE00E94440281E00E9437
:1005900044028BE39FE10197F1F782E080936601CB
:1005A00086E0DF91CF910C94440280620E94440265
:1005B0008BE496E40197F1F78091640180620E94D8
:1005C000440283E592E00197F1F780916401806233
:1005D0000E944402D0CF90916801691710F06FEF2C
:1005E000690FE62FF0E0EB5AFE4F9489890F80687F
:1005F0000C94440241E00E94F10181E090E00895F2
:100600001F920F920FB60F9211242F933F938F9347
:100610009F93AF93BF9380914D0190914E01A09114
:100620004F01B091500130914C0123E0230F2D3741
:1006300058F50196A11DB11D20934C0180934D01E9
:1006400090934E01A0934F01B093500180915101BE
:1006500090915201A0915301B09154010196A11DB6
:10066000B11D8093510190935201A0935301B09317
:100670005401BF91AF919F918F913F912F910F9016
:100680000FBE0F901F90189526E8230F0296A11D0C
:10069000B11DD2CF789484B5826084BD84B5816069
:1006A00084BD85B5826085BD85B5816085BD80913D
:1006B0006E00816080936E001092810080918100B5
:1006C00082608093810080918100816080938100AD
:1006D000809180008160809380008091B10084606F
:1006E0008093B1008091B00081608093B0008091D0
:1006F0007A00846080937A0080917A00826080938F
:100700007A0080917A00816080937A0080917A00EB
:10071000806880937A001092C10064E084E10E94B6
:100720004A0260E080E00E94EB028CE091E00E94CF
:100730005D0161E080E00E94EB028CE191E00E94AB
:100740005D010E9434014B015C0188EEC82E83E0FC
:10075000D82EE12CF12C0E943401681979098A09FC
:100760009B09683E734081059105A8F321E0C21AF8
:10077000D108E108F10888EE880E83E0981EA11CDC
:10078000B11CC114D104E104F10429F781E00E94F5
:1007900044028BE39FE10197F1F7C0E0D0E08EE0E7
:1007A0000E941F018EE00E941F01BC01990F880B5F
:1007B000990B0E94730520E030E040EA5BE30E9461
:1007C000280620E030E04AE754E40E9428066B0146
:1007D0007C014B015C0162E080E00E94EB028FE251
:1007E00091E00E945D0163E080E00E94EB02A701BE
:1007F0009601C701B6010E9495068823E1F08DE3BA
:1008000091E00E945D0163E086E00E94EB0241E01E
:100810006FED85E591E00E94F10163E087E00E94C1
:10082000EB0289E491E00E945D01209709F4B7CFC3
:100830000E940000B4CF26013701E89477F82FEF2B
:100840003FEF4FE75FE7C301B2010E9495068111B8
:100850000DC02FEF3FEF4FE75FE7C301B2010E94EA
:100860003D0518161CF481E491E0CBCF2FEF3FEF4C
:100870004FE75FE4C701B6010E94230618161CF477
:1008800085E491E0BECF2FEF3FEF4FE75FECC7016C
:10089000B6010E943D0587FDF3CF20E030E0A901BD
:1008A000C701B6010E943D0587FF0CC041E06DE223
:1008B00085E591E00E94F10146015701B7FAB09435
:1008C000B7F8B0942AE037ED43EA5BE3C501B40121
:1008D0000E94D1044B015C010E9442056B017C0126
:1008E0000E9471059B01AC01C501B4010E94D004B6
:1008F0004B015C014AE0C701B6010E946A0141E078
:100900006EE285E591E00E94F10120E030E040E2F6
:1009100051E4C501B4010E9428064B015C010E940C
:1009200042056B01F12CE12C4AE0C701B6010E949F
:100930006A01C701B6010E9471059B01AC01C501A6
:10094000B4010E94D00420E030E040E251E40E9473
:1009500028060E94420590E080E04AE00E946A0179
:1009600052CFE5E5F1E01382128284E091E09183B9
:1009700080838DE084838FEF85838CE086838BE09A
:1009800087838AE0808789E0818788E08287138671
:10099000148615861686178661E080E10C944A025B
:1009A0005058BB27AA270E94E8040C94E9050E942E
:1009B000DB0538F00E94E20520F039F49F3F19F47E
:1009C00026F40C94D8050EF4E095E7FB0C94D205C0
:1009D000E92F0E94FA0558F3BA17620773078407D4
:1009E000950720F079F4A6F50C941C060EF4E0951A
:1009F0000B2EBA2FA02D0B01B90190010C01CA01D9
:100A0000A0011124FF27591B99F0593F50F4503E83
:100A100068F11A16F040A22F232F342F4427585F75
:100A2000F3CF469537952795A795F0405395C9F78D
:100A30007EF41F16BA0B620B730B840BBAF0915045
:100A4000A1F0FF0FBB1F661F771F881FC2F70EC0E4
:100A5000BA0F621F731F841F48F4879577956795B7
:100A6000B795F7959E3F08F0B0CF9395880F08F0A3
:100A70009927EE0F9795879508950E94AE0508F483
:100A800081E008950E94020688F09F5798F0B92FE0
:100A90009927B751B0F0E1F0660F771F881F991FB3
:100AA0001AF0BA95C9F714C0B13091F00E941C0633
:100AB000B1E008950C941C06672F782F8827B85F43
:100AC00039F0B93FCCF3869577956795B395D9F70B
:100AD0003EF490958095709561957F4F8F4F9F4F15
:100AE0000895E89409C097FB3EF490958095709521
:100AF00061957F4F8F4F9F4F9923A9F0F92F96E96A
:100B0000BB279395F695879577956795B795F111DE
:100B1000F8CFFAF4BB0F11F460FF1BC06F5F7F4F7B
:100B20008F4F9F4F16C0882311F096E911C077238D
:100B300021F09EE8872F762F05C0662371F096E896
:100B4000862F70E060E02AF09A95660F771F881F65
:100B5000DAF7880F9695879597F90895990F000809
:100B6000550FAA0BE0E8FEEF16161706E807F9077F
:100B7000C0F012161306E407F50798F0621B730B1A
:100B8000840B950B39F40A2661F0232B242B252B9B
:100B900021F408950A2609F4A140A6958FEF811D3E
:100BA000811D089597F99F6780E870E060E00895DF
:100BB0009FEF80EC089500240A9416161706180675
:100BC0000906089500240A94121613061406050651
:100BD0000895092E0394000C11F4882352F0BB0FE2
:100BE00040F4BF2B11F460FF04C06F5F7F4F8F4F45
:100BF0009F4F089557FD9058440F551F59F05F3F80
:100C000071F04795880F97FB991F61F09F3F79F02E
:100C100087950895121613061406551FF2CF4695B0
:100C2000F1DF08C0161617061806991FF1CF869532
:100C30007105610508940895E894BB276627772716
:100C4000CB0197F908950E94AE0508F48FEF08953F
:100C50000E943B060C94E9050E94DB0538F00E94D7
:100C6000E20520F0952311F00C94D2050C94D805E0
:100C700011240C941D060E94FA0570F3959FC1F390
:100C8000950F50E0551F629FF001729FBB27F00D3A
:100C9000B11D639FAA27F00DB11DAA1F649F66278F
:100CA000B00DA11D661F829F2227B00DA11D621FDE
:100CB000739FB00DA11D621F839FA00D611D221F98
:100CC000749F3327A00D611D231F849F600D211D7C
:100CD000822F762F6A2F11249F5750409AF0F1F0FF
:100CE00088234AF0EE0FFF1FBB1F661F771F881F68
:100CF00091505040A9F79E3F510580F00C94D205C9
:100D00000C941D065F3FE4F3983ED4F386957795E7
:100D10006795B795F795E7959F5FC1F7FE2B880F0D
:100D2000911D9695879597F908950E94AE05880BB9
:100D3000990B0895A1E21A2EAA1BBB1BFD010DC041
:100D4000AA1FBB1FEE1FFF1FA217B307E407F5077B
:100D500020F0A21BB30BE40BF50B661F771F881F57
:100D6000991F1A9469F760957095809590959B01ED
:100D7000AC01BD01CF010895EE0FFF1F0590F49166
:080D8000E02D0994F894FFCF67
:100D880000000000FA02A6005A0159014D6F6E6971
:100D9800746F72696E6720537568750054656C6569
:100DA8006B6F6D756E696B61736920504E4A0053A5
:100DB800554855205255414E47414E3A006E616E96
:0C0DC80000696E66006F76660063000034
:00000001FF
